{
  "contractName": "Swap",
  "abi": [
    {
      "inputs": [],
      "stateMutability": "nonpayable",
      "type": "constructor"
    },
    {
      "anonymous": false,
      "inputs": [
        {
          "indexed": false,
          "internalType": "string",
          "name": "word",
          "type": "string"
        },
        {
          "indexed": false,
          "internalType": "address",
          "name": "_add",
          "type": "address"
        },
        {
          "indexed": false,
          "internalType": "string",
          "name": "reason",
          "type": "string"
        }
      ],
      "name": "Log",
      "type": "event"
    },
    {
      "anonymous": false,
      "inputs": [
        {
          "indexed": false,
          "internalType": "string",
          "name": "word",
          "type": "string"
        },
        {
          "indexed": false,
          "internalType": "address",
          "name": "_add",
          "type": "address"
        },
        {
          "indexed": false,
          "internalType": "bytes",
          "name": "reason",
          "type": "bytes"
        }
      ],
      "name": "LogBytes",
      "type": "event"
    },
    {
      "anonymous": false,
      "inputs": [
        {
          "indexed": false,
          "internalType": "address",
          "name": "_add",
          "type": "address"
        }
      ],
      "name": "Pair",
      "type": "event"
    },
    {
      "anonymous": false,
      "inputs": [
        {
          "indexed": false,
          "internalType": "address",
          "name": "_token1",
          "type": "address"
        },
        {
          "indexed": false,
          "internalType": "address",
          "name": "_token2",
          "type": "address"
        },
        {
          "indexed": false,
          "internalType": "address",
          "name": "recipient",
          "type": "address"
        },
        {
          "indexed": false,
          "internalType": "uint256",
          "name": "deadline",
          "type": "uint256"
        }
      ],
      "name": "Params",
      "type": "event"
    },
    {
      "inputs": [],
      "name": "WETH",
      "outputs": [
        {
          "internalType": "address",
          "name": "",
          "type": "address"
        }
      ],
      "stateMutability": "view",
      "type": "function"
    },
    {
      "inputs": [],
      "name": "lido_value",
      "outputs": [
        {
          "internalType": "uint256",
          "name": "",
          "type": "uint256"
        }
      ],
      "stateMutability": "view",
      "type": "function"
    },
    {
      "inputs": [],
      "name": "poolFee",
      "outputs": [
        {
          "internalType": "uint24",
          "name": "",
          "type": "uint24"
        }
      ],
      "stateMutability": "view",
      "type": "function"
    },
    {
      "inputs": [],
      "name": "rETH",
      "outputs": [
        {
          "internalType": "address",
          "name": "",
          "type": "address"
        }
      ],
      "stateMutability": "view",
      "type": "function"
    },
    {
      "inputs": [],
      "name": "rocket_value",
      "outputs": [
        {
          "internalType": "uint256",
          "name": "",
          "type": "uint256"
        }
      ],
      "stateMutability": "view",
      "type": "function"
    },
    {
      "inputs": [],
      "name": "stETH",
      "outputs": [
        {
          "internalType": "address",
          "name": "",
          "type": "address"
        }
      ],
      "stateMutability": "view",
      "type": "function"
    },
    {
      "inputs": [],
      "name": "swapFactory2",
      "outputs": [
        {
          "internalType": "contract IUniswapV2Factory",
          "name": "",
          "type": "address"
        }
      ],
      "stateMutability": "view",
      "type": "function"
    },
    {
      "inputs": [],
      "name": "swapFactory3",
      "outputs": [
        {
          "internalType": "contract IUniswapV3Factory",
          "name": "",
          "type": "address"
        }
      ],
      "stateMutability": "view",
      "type": "function"
    },
    {
      "inputs": [],
      "name": "swapRouter",
      "outputs": [
        {
          "internalType": "contract ISwapRouter",
          "name": "",
          "type": "address"
        }
      ],
      "stateMutability": "view",
      "type": "function"
    },
    {
      "inputs": [
        {
          "internalType": "address",
          "name": "token1",
          "type": "address"
        },
        {
          "internalType": "address",
          "name": "token2",
          "type": "address"
        }
      ],
      "name": "testSwapV2",
      "outputs": [
        {
          "internalType": "address",
          "name": "pair",
          "type": "address"
        }
      ],
      "stateMutability": "nonpayable",
      "type": "function"
    },
    {
      "inputs": [
        {
          "internalType": "address",
          "name": "token1",
          "type": "address"
        },
        {
          "internalType": "address",
          "name": "token2",
          "type": "address"
        },
        {
          "internalType": "uint24",
          "name": "fee",
          "type": "uint24"
        }
      ],
      "name": "testSwapV3",
      "outputs": [
        {
          "internalType": "address",
          "name": "a",
          "type": "address"
        }
      ],
      "stateMutability": "nonpayable",
      "type": "function"
    },
    {
      "inputs": [
        {
          "internalType": "address",
          "name": "token1",
          "type": "address"
        },
        {
          "internalType": "address",
          "name": "token2",
          "type": "address"
        },
        {
          "internalType": "uint256",
          "name": "amountIn",
          "type": "uint256"
        }
      ],
      "name": "swapCoinsWithParams",
      "outputs": [],
      "stateMutability": "nonpayable",
      "type": "function"
    },
    {
      "inputs": [
        {
          "internalType": "uint256",
          "name": "rETH_in",
          "type": "uint256"
        },
        {
          "internalType": "uint256",
          "name": "stETH_in",
          "type": "uint256"
        }
      ],
      "name": "swapStakeforEth",
      "outputs": [],
      "stateMutability": "nonpayable",
      "type": "function"
    },
    {
      "inputs": [
        {
          "internalType": "uint256",
          "name": "amountIn",
          "type": "uint256"
        }
      ],
      "name": "swapEthForStake",
      "outputs": [],
      "stateMutability": "nonpayable",
      "type": "function"
    }
  ],
  "bytecode": "0x60e060405273e592427a0aece92de3edee1f18e0157c0586156473ffffffffffffffffffffffffffffffffffffffff1660809073ffffffffffffffffffffffffffffffffffffffff1660601b815250731f98431c8ad98523631ae4a59f267346ea31f98473ffffffffffffffffffffffffffffffffffffffff1660a09073ffffffffffffffffffffffffffffffffffffffff1660601b815250735c69bee701ef814a2b6a3edd4b1652cb9cc5aa6f73ffffffffffffffffffffffffffffffffffffffff1660c09073ffffffffffffffffffffffffffffffffffffffff1660601b815250604051806040016040528073c7ad46e0b8a400bb3c915120d284aafba8fc473573ffffffffffffffffffffffffffffffffffffffff1673ffffffffffffffffffffffffffffffffffffffff1681526020017301be23585060835e02b77ef475b0cc51aa1e070973ffffffffffffffffffffffffffffffffffffffff1673ffffffffffffffffffffffffffffffffffffffff16815250600090600262000189929190620001c8565b5060405180604001604052806032815260200160328152506002906002620001b39291906200024a565b50348015620001c157600080fd5b50620002ae565b826002810192821562000237579160200282015b82811115620002365782518260006101000a81548173ffffffffffffffffffffffffffffffffffffffff021916908373ffffffffffffffffffffffffffffffffffffffff16021790555091602001919060010190620001dc565b5b5090506200024691906200028f565b5090565b82600281019282156200027c579160200282015b828111156200027b5782518255916020019190600101906200025e565b5b5090506200028b91906200028f565b5090565b5b80821115620002aa57600081600090555060010162000290565b5090565b60805160601c60a05160601c60c05160601c611a786200030c600039806104ee528061051952508061040152806107bd52508061032f528061036e52806106675280610734528061079952806108095280610d0b5250611a786000f3fe608060405234801561001057600080fd5b50600436106100ea5760003560e01c8063ad5c46481161008c578063c31c9c0711610066578063c31c9c071461023b578063c871d24114610259578063ca8aa0e414610277578063f109bc9a14610295576100ea565b8063ad5c4648146101e3578063b74c368914610201578063c1fe3e481461021d576100ea565b80634bbe7681116100c85780634bbe7681146101595780636f38f07014610177578063966f4bb1146101955780639b6352e8146101c5576100ea565b8063089fe6aa146100ef57806340c4b1711461010d578063424af4c114610129575b600080fd5b6100f76102b1565b60405161010491906117d1565b60405180910390f35b61012760048036038101906101229190611316565b6102b7565b005b610143600480360381019061013e9190611226565b6103fd565b6040516101509190611622565b60405180910390f35b6101616104ec565b60405161016e91906116b8565b60405180910390f35b61017f610510565b60405161018c91906117ec565b60405180910390f35b6101af60048036038101906101aa91906111ea565b610515565b6040516101bc9190611622565b60405180910390f35b6101cd610601565b6040516101da91906117ec565b60405180910390f35b6101eb610606565b6040516101f89190611622565b60405180910390f35b61021b600480360381019061021691906112c4565b61061e565b005b61022561077f565b6040516102329190611622565b60405180910390f35b610243610797565b604051610250919061169d565b60405180910390f35b6102616107bb565b60405161026e91906116d3565b60405180910390f35b61027f6107df565b60405161028c9190611622565b60405180910390f35b6102af60048036038101906102aa9190611275565b6107f7565b005b610bb881565b6103e88210156102c657600080fd5b6103e88110156102d557600080fd5b6102f573c7ad46e0b8a400bb3c915120d284aafba8fc473533308561083e565b6103157301be23585060835e02b77ef475b0cc51aa1e070933308461083e565b61035473c7ad46e0b8a400bb3c915120d284aafba8fc47357f000000000000000000000000000000000000000000000000000000000000000084610a5f565b6103937301be23585060835e02b77ef475b0cc51aa1e07097f000000000000000000000000000000000000000000000000000000000000000083610a5f565b6103c673c7ad46e0b8a400bb3c915120d284aafba8fc473573c778417e063141139fce010982780140aa0cd5ab84610c61565b6103f97301be23585060835e02b77ef475b0cc51aa1e070973c778417e063141139fce010982780140aa0cd5ab83610c61565b5050565b60007f000000000000000000000000000000000000000000000000000000000000000073ffffffffffffffffffffffffffffffffffffffff16631698ee828585856040518463ffffffff1660e01b815260040161045c93929190611666565b60206040518083038186803b15801561047457600080fd5b505afa158015610488573d6000803e3d6000fd5b505050506040513d601f19601f820116820180604052508101906104ac91906111c1565b90507f7aefd1538c7143d938f2abce5a07d8790dad961e8ea97e92d422026cecc0acdb816040516104dd9190611622565b60405180910390a19392505050565b7f000000000000000000000000000000000000000000000000000000000000000081565b603281565b60007f000000000000000000000000000000000000000000000000000000000000000073ffffffffffffffffffffffffffffffffffffffff1663e6a4390584846040518363ffffffff1660e01b815260040161057292919061163d565b60206040518083038186803b15801561058a57600080fd5b505afa15801561059e573d6000803e3d6000fd5b505050506040513d601f19601f820116820180604052508101906105c291906111c1565b90507f7aefd1538c7143d938f2abce5a07d8790dad961e8ea97e92d422026cecc0acdb816040516105f39190611622565b60405180910390a192915050565b603281565b73c778417e063141139fce010982780140aa0cd5ab81565b6103e881101561062d57600080fd5b61064d73c778417e063141139fce010982780140aa0cd5ab33308461083e565b61068c73c778417e063141139fce010982780140aa0cd5ab7f000000000000000000000000000000000000000000000000000000000000000083610a5f565b60006002828161069857fe5b04905060005b6002811015610701576106f473c778417e063141139fce010982780140aa0cd5ab600083600281106106cc57fe5b0160009054906101000a900473ffffffffffffffffffffffffffffffffffffffff1684610c61565b808060010191505061069e565b5060006002838161070e57fe5b069050600081111561077a5761075a73c778417e063141139fce010982780140aa0cd5ab7f00000000000000000000000000000000000000000000000000000000000000006000610a5f565b61077973c778417e063141139fce010982780140aa0cd5ab3383610eb4565b5b505050565b7301be23585060835e02b77ef475b0cc51aa1e070981565b7f000000000000000000000000000000000000000000000000000000000000000081565b7f000000000000000000000000000000000000000000000000000000000000000081565b73c7ad46e0b8a400bb3c915120d284aafba8fc473581565b6108038333308461083e565b61082e837f000000000000000000000000000000000000000000000000000000000000000083610a5f565b610839838383610c61565b505050565b600060608573ffffffffffffffffffffffffffffffffffffffff166323b872dd60e01b868686604051602401808473ffffffffffffffffffffffffffffffffffffffff1681526020018373ffffffffffffffffffffffffffffffffffffffff1681526020018281526020019350505050604051602081830303815290604052907bffffffffffffffffffffffffffffffffffffffffffffffffffffffff19166020820180517bffffffffffffffffffffffffffffffffffffffffffffffffffffffff83818316178352505050506040518082805190602001908083835b6020831061093e578051825260208201915060208101905060208303925061091b565b6001836020036101000a0380198251168184511680821785525050505050509050019150506000604051808303816000865af19150503d80600081146109a0576040519150601f19603f3d011682016040523d82523d6000602084013e6109a5565b606091505b50915091508180156109e557506000815114806109e457508080602001905160208110156109d257600080fd5b81019080805190602001909291905050505b5b610a57576040517f08c379a00000000000000000000000000000000000000000000000000000000081526004018080602001828103825260038152602001807f535446000000000000000000000000000000000000000000000000000000000081525060200191505060405180910390fd5b505050505050565b600060608473ffffffffffffffffffffffffffffffffffffffff1663095ea7b360e01b8585604051602401808373ffffffffffffffffffffffffffffffffffffffff16815260200182815260200192505050604051602081830303815290604052907bffffffffffffffffffffffffffffffffffffffffffffffffffffffff19166020820180517bffffffffffffffffffffffffffffffffffffffffffffffffffffffff83818316178352505050506040518082805190602001908083835b60208310610b415780518252602082019150602081019050602083039250610b1e565b6001836020036101000a0380198251168184511680821785525050505050509050019150506000604051808303816000865af19150503d8060008114610ba3576040519150601f19603f3d011682016040523d82523d6000602084013e610ba8565b606091505b5091509150818015610be85750600081511480610be75750808060200190516020811015610bd557600080fd5b81019080805190602001909291905050505b5b610c5a576040517f08c379a00000000000000000000000000000000000000000000000000000000081526004018080602001828103825260028152602001807f534100000000000000000000000000000000000000000000000000000000000081525060200191505060405180910390fd5b5050505050565b610c696110b6565b6040518061010001604052808573ffffffffffffffffffffffffffffffffffffffff1681526020018473ffffffffffffffffffffffffffffffffffffffff168152602001610bb862ffffff1681526020013373ffffffffffffffffffffffffffffffffffffffff168152602001600f4201815260200183815260200160008152602001600073ffffffffffffffffffffffffffffffffffffffff1681525090507f000000000000000000000000000000000000000000000000000000000000000073ffffffffffffffffffffffffffffffffffffffff1663414bf389826040518263ffffffff1660e01b8152600401610d6291906117b5565b602060405180830381600087803b158015610d7c57600080fd5b505af1925050508015610dad57506040513d601f19601f82011682018060405250810190610daa91906112ed565b60015b610e7557610db9611947565b80610dc45750610e03565b7f35f3a1cf642ba4be1e05dc7b4f1296a9537a31528524b5fe3c77051f277a82168482604051610df5929190611772565b60405180910390a150610e70565b3d8060008114610e2f576040519150601f19603f3d011682016040523d82523d6000602084013e610e34565b606091505b507f2f577608b1b381cb3f7430015aab1fa23e94edc19d8fd29bb4595dc85f54974b8482604051610e6692919061172f565b60405180910390a1505b610eae565b507f35f3a1cf642ba4be1e05dc7b4f1296a9537a31528524b5fe3c77051f277a821683604051610ea591906116ee565b60405180910390a15b50505050565b600060608473ffffffffffffffffffffffffffffffffffffffff1663a9059cbb60e01b8585604051602401808373ffffffffffffffffffffffffffffffffffffffff16815260200182815260200192505050604051602081830303815290604052907bffffffffffffffffffffffffffffffffffffffffffffffffffffffff19166020820180517bffffffffffffffffffffffffffffffffffffffffffffffffffffffff83818316178352505050506040518082805190602001908083835b60208310610f965780518252602082019150602081019050602083039250610f73565b6001836020036101000a0380198251168184511680821785525050505050509050019150506000604051808303816000865af19150503d8060008114610ff8576040519150601f19603f3d011682016040523d82523d6000602084013e610ffd565b606091505b509150915081801561103d575060008151148061103c575080806020019051602081101561102a57600080fd5b81019080805190602001909291905050505b5b6110af576040517f08c379a00000000000000000000000000000000000000000000000000000000081526004018080602001828103825260028152602001807f535400000000000000000000000000000000000000000000000000000000000081525060200191505060405180910390fd5b5050505050565b604051806101000160405280600073ffffffffffffffffffffffffffffffffffffffff168152602001600073ffffffffffffffffffffffffffffffffffffffff168152602001600062ffffff168152602001600073ffffffffffffffffffffffffffffffffffffffff168152602001600081526020016000815260200160008152602001600073ffffffffffffffffffffffffffffffffffffffff1681525090565b600081359050611167816119fd565b92915050565b60008151905061117c816119fd565b92915050565b60008135905061119181611a14565b92915050565b6000813590506111a681611a2b565b92915050565b6000815190506111bb81611a2b565b92915050565b6000602082840312156111d357600080fd5b60006111e18482850161116d565b91505092915050565b600080604083850312156111fd57600080fd5b600061120b85828601611158565b925050602061121c85828601611158565b9150509250929050565b60008060006060848603121561123b57600080fd5b600061124986828701611158565b935050602061125a86828701611158565b925050604061126b86828701611182565b9150509250925092565b60008060006060848603121561128a57600080fd5b600061129886828701611158565b93505060206112a986828701611158565b92505060406112ba86828701611197565b9150509250925092565b6000602082840312156112d657600080fd5b60006112e484828501611197565b91505092915050565b6000602082840312156112ff57600080fd5b600061130d848285016111ac565b91505092915050565b6000806040838503121561132957600080fd5b600061133785828601611197565b925050602061134885828601611197565b9150509250929050565b61135b8161183f565b82525050565b61136a8161183f565b82525050565b600061137b82611807565b611385818561181d565b93506113958185602086016118f6565b61139e81611929565b840191505092915050565b6113b28161188a565b82525050565b6113c1816118ae565b82525050565b6113d0816118d2565b82525050565b60006113e182611812565b6113eb818561182e565b93506113fb8185602086016118f6565b61140481611929565b840191505092915050565b600061141c60148361182e565b91507f53776170706564207375636365737366756c6c790000000000000000000000006000830152602082019050919050565b600061145c60008361182e565b9150600082019050919050565b600061147660268361182e565b91507f4279746573206572726f72207768696c6520747279696e6720746f207377617060008301527f20636f696e2000000000000000000000000000000000000000000000000000006020830152604082019050919050565b60006114dc60268361182e565b91507f537472696e67206572726f72207768696c6520747279696e6720746f2073776160008301527f7020636f696e00000000000000000000000000000000000000000000000000006020830152604082019050919050565b6101008201600082015161154c6000850182611352565b50602082015161155f6020850182611352565b50604082015161157260408501826115e6565b5060608201516115856060850182611352565b5060808201516115986080850182611604565b5060a08201516115ab60a0850182611604565b5060c08201516115be60c0850182611604565b5060e08201516115d160e08501826115d7565b50505050565b6115e081611851565b82525050565b6115ef81611871565b82525050565b6115fe81611871565b82525050565b61160d81611880565b82525050565b61161c81611880565b82525050565b60006020820190506116376000830184611361565b92915050565b60006040820190506116526000830185611361565b61165f6020830184611361565b9392505050565b600060608201905061167b6000830186611361565b6116886020830185611361565b61169560408301846115f5565b949350505050565b60006020820190506116b260008301846113a9565b92915050565b60006020820190506116cd60008301846113b8565b92915050565b60006020820190506116e860008301846113c7565b92915050565b600060608201905081810360008301526117078161140f565b90506117166020830184611361565b81810360408301526117278161144f565b905092915050565b6000606082019050818103600083015261174881611469565b90506117576020830185611361565b81810360408301526117698184611370565b90509392505050565b6000606082019050818103600083015261178b816114cf565b905061179a6020830185611361565b81810360408301526117ac81846113d6565b90509392505050565b6000610100820190506117cb6000830184611535565b92915050565b60006020820190506117e660008301846115f5565b92915050565b60006020820190506118016000830184611613565b92915050565b600081519050919050565b600081519050919050565b600082825260208201905092915050565b600082825260208201905092915050565b600061184a82611851565b9050919050565b600073ffffffffffffffffffffffffffffffffffffffff82169050919050565b600062ffffff82169050919050565b6000819050919050565b60006118958261189c565b9050919050565b60006118a782611851565b9050919050565b60006118b9826118c0565b9050919050565b60006118cb82611851565b9050919050565b60006118dd826118e4565b9050919050565b60006118ef82611851565b9050919050565b60005b838110156119145780820151818401526020810190506118f9565b83811115611923576000848401525b50505050565b6000601f19601f8301169050919050565b60008160e01c9050919050565b600060443d1015611957576119fa565b60046000803e61196860005161193a565b6308c379a0811461197957506119fa565b60405160043d036004823e80513d602482011167ffffffffffffffff821117156119a5575050506119fa565b808201805167ffffffffffffffff8111156119c45750505050506119fa565b8060208301013d85018111156119df575050505050506119fa565b6119e882611929565b60208401016040528296505050505050505b90565b611a068161183f565b8114611a1157600080fd5b50565b611a1d81611871565b8114611a2857600080fd5b50565b611a3481611880565b8114611a3f57600080fd5b5056fea2646970667358221220625f0365a99c46406a1c7095c0e678e82ac44ebec004ef90c0ee8e6f495b45fe64736f6c63430007050033",
  "immutableReferences": {
    "517": [
      {
        "length": 32,
        "start": 815
      },
      {
        "length": 32,
        "start": 878
      },
      {
        "length": 32,
        "start": 1639
      },
      {
        "length": 32,
        "start": 1844
      },
      {
        "length": 32,
        "start": 1945
      },
      {
        "length": 32,
        "start": 2057
      },
      {
        "length": 32,
        "start": 3339
      }
    ],
    "522": [
      {
        "length": 32,
        "start": 1025
      },
      {
        "length": 32,
        "start": 1981
      }
    ],
    "527": [
      {
        "length": 32,
        "start": 1262
      },
      {
        "length": 32,
        "start": 1305
      }
    ]
  },
  "source": "// SPDX-License-Identifier: UNLICENSED\npragma solidity 0.7.5;\npragma abicoder v2;\n\nimport \"@uniswap/v3-periphery/contracts/libraries/TransferHelper.sol\";\nimport \"@uniswap/v3-periphery/contracts/interfaces/ISwapRouter.sol\";\nimport \"@uniswap/v2-core/contracts/interfaces/IUniswapV2Factory.sol\";\nimport \"@uniswap/v3-core/contracts/interfaces/IUniswapV3Factory.sol\";\nimport \"@openzeppelin/contracts/token/ERC20/IERC20.sol\";\n\ncontract Swap {\n    // It should be noted that for the sake of these examples, we purposefully pass in the swap router instead of inherit the swap router for simplicity.\n    // More advanced example contracts will detail how to inherit the swap router safely.\n\n    ISwapRouter public immutable swapRouter =\n        ISwapRouter(0xE592427A0AEce92De3Edee1F18E0157C05861564);\n\n    IUniswapV3Factory public immutable swapFactory3 =\n        IUniswapV3Factory(0x1F98431c8aD98523631AE4a59f267346ea31F984);\n\n    IUniswapV2Factory public immutable swapFactory2 =\n        IUniswapV2Factory(0x5C69bEe701ef814a2B6a3EDD4B1652CB9cc5aA6f);\n\n    event Params(\n        address _token1,\n        address _token2,\n        address recipient,\n        uint256 deadline\n    );\n    //event Message(bytes data, address sender, bytes4 sig);\n    event Pair(address _add);\n    event Log(string word, address _add, string reason);\n    event LogBytes(string word, address _add, bytes reason);\n\n    address public constant WETH = 0xc778417E063141139Fce010982780140Aa0cD5Ab; //Actually WETH\n    address public constant rETH = 0xc7AD46e0b8a400Bb3C915120d284AafbA8fc4735; //RocketPool Token - Address for DAI\n    address public constant stETH = 0x01BE23585060835E02B77ef475b0Cc51aA1e0709; //Lido Token - Address for LINK\n    // address public constant sETH2 = 0xFb1D709cb959aC0EA14cAD0927EABC7832e65058; //Stakewise Staking Token - Address for USDT\n    //address public constant rETH2 = 0x3d2aB6aa7BAaef25a39D1B3b1ce22418f3ef0223; //Stakewise Rewards Token - Address for USDM\n\n    uint256 public constant rocket_value = 50;\n    uint256 public constant lido_value = 50;\n    // uint256 public constant stakewise_value = 20;\n\n    address[2] staking_options = [rETH, stETH];\n    uint256[2] staking_percentages = [rocket_value, lido_value];\n\n    // For this example, we will set the pool fee to 0.3%.\n    uint24 public constant poolFee = 3000;\n\n    constructor() {}\n\n    //Returns pair address from Uniswap v2 if exists\n    function testSwapV2(address token1, address token2)\n        external\n        returns (address pair)\n    {\n        pair = swapFactory2.getPair(token1, token2);\n        emit Pair(pair);\n    }\n\n    //Returns pool address from Uniswap V3 if exists\n    function testSwapV3(\n        address token1,\n        address token2,\n        uint24 fee\n    ) external returns (address a) {\n        a = swapFactory3.getPool(token1, token2, fee);\n        emit Pair(a);\n    }\n\n    //internal function to execute the swap via uniswap router\n    function executeSwap(\n        address tokenIn,\n        address tokenOut,\n        uint256 amount\n    ) internal {\n        ISwapRouter.ExactInputSingleParams memory params = ISwapRouter\n            .ExactInputSingleParams({\n                tokenIn: tokenIn,\n                tokenOut: tokenOut,\n                fee: poolFee,\n                recipient: msg.sender,\n                deadline: block.timestamp + 15,\n                amountIn: amount,\n                amountOutMinimum: 0,\n                sqrtPriceLimitX96: 0\n            });\n\n        // The call to `exactInputSingle` executes the swap.\n        try swapRouter.exactInputSingle(params) {\n            emit Log(\"Swapped successfully\", tokenOut, \"\");\n        } catch Error(string memory reason) {\n            emit Log(\n                \"String error while trying to swap coin\",\n                tokenOut,\n                reason\n            );\n        } catch (bytes memory otherError) {\n            emit LogBytes(\n                \"Bytes error while trying to swap coin \",\n                tokenOut,\n                otherError\n            );\n        }\n    }\n\n    //external function to test swapping two coins specified by arguments\n    function swapCoinsWithParams(\n        address token1,\n        address token2,\n        uint256 amountIn\n    ) external {\n        TransferHelper.safeTransferFrom(\n            token1,\n            msg.sender,\n            address(this),\n            amountIn\n        );\n        // Approve the router to spend ETH.\n        TransferHelper.safeApprove(token1, address(swapRouter), amountIn);\n        executeSwap(token1, token2, amountIn);\n    }\n\n    /// @notice swapExactInputSingle swaps a fixed amount of each staked token for ETH\n    /// using the ETH/WETH 0.3% pool by calling `exactInputSingle` in the swap router.\n    /// @dev The calling address must approve this contract to spend at least `amountIn` worth of its ETH for this function to succeed.\n    /// @param rETH_in amount of rETH that will be swapped for ETH\n    /// @param stETH_in amount of stETH that will be swapped for ETH\n    function swapStakeforEth(uint256 rETH_in, uint256 stETH_in) external {\n        require(rETH_in >= 1000);\n        require(stETH_in >= 1000);\n        // Transfer the specified amount of ETH to this contract.\n        //uint256 num_tokens = 2;\n        TransferHelper.safeTransferFrom(\n            rETH,\n            msg.sender,\n            address(this),\n            rETH_in\n        );\n\n        // Transfer the specified amount of stETH_in to this contract.\n        TransferHelper.safeTransferFrom(\n            stETH,\n            msg.sender,\n            address(this),\n            stETH_in\n        );\n\n        // Approve the router to spend ETH.\n        TransferHelper.safeApprove(rETH, address(swapRouter), rETH_in);\n        TransferHelper.safeApprove(stETH, address(swapRouter), stETH_in);\n\n        executeSwap(rETH, WETH, rETH_in);\n        executeSwap(stETH, WETH, stETH_in);\n    }\n\n    /// @notice swapEthForStake swaps a fixed amount of ETH for a maximum possible amount of each staking token\n    /// using the ETH/WETH 0.3% pool by calling `exactInputSingle` in the swap router.\n    /// @dev The calling address must approve this contract to spend at least `amountIn` worth of its ETH for this function to succeed.\n    /// @param amountIn The exact amount of ETH that will be swapped for staking tokens.\n    function swapEthForStake(uint256 amountIn) external {\n        require(amountIn >= 1000);\n        // msg.sender must approve this contract\n\n        // Transfer the specified amount of ETH to this contract.\n        TransferHelper.safeTransferFrom(\n            WETH,\n            msg.sender,\n            address(this),\n            amountIn\n        );\n\n        // Approve the router to spend ETH.\n        TransferHelper.safeApprove(WETH, address(swapRouter), amountIn);\n\n        uint256 split = amountIn / staking_options.length;\n        for (uint256 i = 0; i < staking_options.length; i++) {\n            executeSwap(WETH, staking_options[i], split);\n        }\n\n        uint256 sendBack = amountIn % staking_options.length;\n        if (sendBack > 0) {\n            TransferHelper.safeApprove(WETH, address(swapRouter), 0);\n            TransferHelper.safeTransfer(WETH, msg.sender, sendBack);\n        }\n    }\n\n    // /// @notice swapExactOutputSingle swaps a minimum possible amount of ETH for a fixed amount of WETH.\n    // /// @dev The calling address must approve this contract to spend its ETH for this function to succeed. As the amount of input ETH is variable,\n    // /// the calling address will need to approve for a slightly higher amount, anticipating some variance.\n    // /// @param amountOut The exact amount of WETH to receive from the swap.\n    // /// @param amountInMaximum The amount of ETH we are willing to spend to receive the specified amount of WETH.\n    // /// @return amountIn The amount of ETH actually spent in the swap.\n    // function swapExactOutputSingle(uint256 amountOut, uint256 amountInMaximum)\n    //     external\n    //     returns (uint256 amountIn)\n    // {\n    //     // Transfer the specified amount of ETH to this contract.\n    //     TransferHelper.safeTransferFrom(\n    //         WETH,\n    //         msg.sender,\n    //         address(this),\n    //         amountInMaximum\n    //     );\n\n    //     // Approve the router to spend the specifed `amountInMaximum` of ETH.\n    //     // In production, you should choose the maximum amount to spend based on oracles or other data sources to acheive a better swap.\n    //     TransferHelper.safeApprove(WETH, address(swapRouter), amountInMaximum);\n\n    //     ISwapRouter.ExactOutputSingleParams memory params = ISwapRouter\n    //         .ExactOutputSingleParams({\n    //             tokenIn: WETH,\n    //             tokenOut: rETH,\n    //             fee: poolFee,\n    //             recipient: msg.sender,\n    //             deadline: block.timestamp,\n    //             amountOut: amountOut,\n    //             amountInMaximum: amountInMaximum,\n    //             sqrtPriceLimitX96: 0\n    //         });\n    //     emit Params(WETH, rETH, msg.sender, block.timestamp);\n\n    //     // Executes the swap returning the amountIn needed to spend to receive the desired amountOut.\n    //     amountIn = swapRouter.exactOutputSingle(params);\n\n    //     // For exact output swaps, the amountInMaximum may not have all been spent.\n    //     // If the actual amount spent (amountIn) is less than the specified maximum amount, we must refund the msg.sender and approve the swapRouter to spend 0.\n    //     if (amountIn < amountInMaximum) {\n    //         TransferHelper.safeApprove(WETH, address(swapRouter), 0);\n    //         TransferHelper.safeTransfer(\n    //             WETH,\n    //             msg.sender,\n    //             amountInMaximum - amountIn\n    //         );\n    //     }\n    // }\n}\n",
  "sourcePath": "/Users/philipvlandis/ethglobal/tests/testUniswap/contracts/Swap.sol",
  "compiler": {
    "name": "solc",
    "version": "0.7.5+commit.eb77ed08.Emscripten.clang"
  },
  "schemaVersion": "3.4.7",
  "updatedAt": "2022-05-15T16:22:38.176Z",
  "devdoc": {
    "kind": "dev",
    "methods": {
      "swapEthForStake(uint256)": {
        "details": "The calling address must approve this contract to spend at least `amountIn` worth of its ETH for this function to succeed.",
        "params": {
          "amountIn": "The exact amount of ETH that will be swapped for staking tokens."
        }
      },
      "swapStakeforEth(uint256,uint256)": {
        "details": "The calling address must approve this contract to spend at least `amountIn` worth of its ETH for this function to succeed.",
        "params": {
          "rETH_in": "amount of rETH that will be swapped for ETH",
          "stETH_in": "amount of stETH that will be swapped for ETH"
        }
      }
    },
    "version": 1
  },
  "userdoc": {
    "kind": "user",
    "methods": {
      "swapEthForStake(uint256)": {
        "notice": "swapEthForStake swaps a fixed amount of ETH for a maximum possible amount of each staking token using the ETH/WETH 0.3% pool by calling `exactInputSingle` in the swap router."
      },
      "swapStakeforEth(uint256,uint256)": {
        "notice": "swapExactInputSingle swaps a fixed amount of each staked token for ETH using the ETH/WETH 0.3% pool by calling `exactInputSingle` in the swap router."
      }
    },
    "version": 1
  }
}